:100000000C9462000C948A000C948A000C948A0070
:100010000C948A000C948A000C948A000C948A0038
:100020000C948A000C948A000C948A000C948A0028
:100030000C948A000C948A000C948A000C948A0018
:100040000C94F0030C948A000C948A000C948A009F
:100050000C948A000C948A000C948A000C948A00F8
:100060000C948A000C948A000000000024002700F1
:100070002A0000000000250028002B0000000000DE
:1000800023002600290004040404040404040202DA
:100090000202020203030303030301020408102007
:1000A0004080010204081020010204081020000012
:1000B0000008000201000003040700000000000027
:1000C0000000480511241FBECFEFD8E0DEBFCDBF32
:1000D00011E0A0E0B1E0E8E5FBE002C005900D9280
:1000E000A036B107D9F722E0A0E6B1E001C01D9229
:1000F000AF30B207E1F710E0C2E6D0E004C02197CC
:10010000FE010E949F05C136D107C9F70E943A043B
:100110000C94AA050C940000CF92DF92EF92FF920C
:100120000F931F93CF93DF936C017A018B01C0E093
:10013000D0E0CE15DF0589F0D8016D918D01D60193
:10014000ED91FC910190F081E02DC6010995892B7C
:1001500011F47E0102C02196ECCFC701DF91CF914F
:100160001F910F91FF90EF90DF90CF900895833013
:1001700081F028F4813099F08230A1F00895873021
:10018000A9F08830B9F08430D1F4809180008F7D5F
:1001900003C0809180008F7780938000089584B59C
:1001A0008F7702C084B58F7D84BD08958091B000A3
:1001B0008F7703C08091B0008F7D8093B000089549
:1001C000CF93DF93282F30E0F901E255FF4F849160
:1001D000F901E656FF4FD491F901EA57FF4FC49158
:1001E000CC2391F081110E94B700EC2FF0E0EE0FCC
:1001F000FF1FE458FF4FA591B491EC91ED2381E0EE
:1002000090E021F480E002C080E090E0DF91CF91A7
:1002100008951F93CF93DF93282F30E0F901E25523
:10022000FF4F8491F901E656FF4FD491F901EA5747
:10023000FF4FC491CC23C9F0162F81110E94B70043
:10024000EC2FF0E0EE0FFF1FEE58FF4FA591B49199
:100250008FB7F894111105C09C91ED2FE095E9231B
:1002600002C0EC91ED2BEC938FBFDF91CF911F91EA
:100270000895CF93DF9390E0FC01E656FF4F249161
:10028000FC01EA57FF4F8491882361F190E0880FC9
:10029000991FFC01E859FF4FC591D491FC01EE581C
:1002A000FF4FA591B491611109C09FB7F89488815F
:1002B000209582238883EC912E230BC0623061F459
:1002C0009FB7F8943881822F809583238883EC919F
:1002D0002E2B2C939FBF06C08FB7F894E8812E2B4E
:1002E00028838FBFDF91CF910895FC01878D8823EC
:1002F00029F081E0268D918D291380E00895CF9219
:10030000DF92EF92FF920F931F93CF93DF93EC0155
:100310002FB7F8948091AB019091AC01A091AD0101
:10032000B091AE012FBF8C879D87AE87BF872A8D86
:100330003B8D231303C031E03C8F05C01C8E8883A6
:100340009983AA83BB83488159816A817B816C012F
:100350007D01C41AD50AE60AF70A49895A89052E89
:10036000000C660B770B4C155D056E057F0540F4A0
:100370003C8D332329F02D8F88839983AA83BB83F7
:100380002B8F2FB7F8948091AB019091AC01A09185
:10039000AD01B091AE012FBF8C879D87AE87BF871F
:1003A0001F8E2D8D4C815D816E817F816C017D0161
:1003B000C41AD50AE60AF70A4B895C89052E000C97
:1003C000660B770BC416D506E606F70658F03E8D89
:1003D000231741F08C839D83AE83BF832E8F81E0F2
:1003E0008F8F19A21AA2CE010E947501882301F1F4
:1003F0004C855D856E857F8588859985AA85BB85B9
:100400006A017B01C81AD90AEA0AFB0A8F89988D0A
:10041000092E000CAA0BBB0B21E0C816D906EA0670
:10042000FB0608F020E02AA3488759876A877B8764
:1004300018A289A181111FC02E8D998D291319C071
:100440000C851D852E853F8588859985AA85BB8568
:10045000081B190B2A0B3B0B4D895E89052E000CDE
:10046000660B770B81E0401751076207730708F0AE
:1004700080E088A389A38F8DDF91CF911F910F9189
:10048000FF90EF90DF90CF900895AF92BF92CF9200
:10049000DF92EF92FF920F931F93CF93DF93EC01C4
:1004A000862F688BBA8AA98A1C8B0B8BFE8AED8AF1
:1004B000D88ECF8A298F642F0E9439012FB7F894E4
:1004C0008091AB019091AC01A091AD01B091AE01D2
:1004D0002FBF8C839D83AE83BF8388890E94E000F9
:1004E00021E0892B09F420E02E8FDF91CF911F911D
:1004F0000F91FF90EF90DF90CF90BF90AF90089555
:10050000CF93DF93EC0160E08E810E94090161E0EE
:100510008E810E94090160E08E810E9409018BE8B2
:1005200091E00197F1F7DF91CF910895CF92DF929B
:10053000EF92FF920F931F93CF93DF937C016C0197
:1005400087E0C80ED11CC0E0D0E0062F10E0B80153
:100550000C2E02C0759567950A94E2F76170F6015A
:1005600081916F010E9409012196C430D10579F76C
:10057000C701DF91CF911F910F91FF90EF90DF9016
:10058000CF900C948002CF92DF92EF92FF920F9364
:100590001F93CF93DF93EC01F62E642F8C810E9482
:1005A00009018D818F3F19F060E00E9409018F855C
:1005B0000F2D10E084FF25C06E0187E0C80ED11C0E
:1005C000E12CF12CB8010E2C02C0759567950A94A8
:1005D000E2F76170F60181916F010E940901FFEF5E
:1005E000EF1AFF0A88E0E816F10461F7CE01DF9107
:1005F000CF911F910F91FF90EF90DF90CF900C94CF
:100600008002B80184E0759567958A95E1F7CE017F
:100610000E9496026F2DCE01DF91CF911F910F9115
:10062000FF90EF90DF90CF900C94960241E00E94F3
:10063000C30281E090E0089540E00C94C30284304E
:1006400008F083E090910A02891710F08FEF890F6C
:10065000E82FF0E0E950FE4F6489606887EF91E091
:100660000C941C0361E00E941C038BE39FE1019743
:10067000F1F70895EF92FF920F931F93CF93DF93BB
:10068000EC01623018F08F8588608F876B8B1C8A35
:1006900080E48D8B80E18E8B80E58F8B61E08C8197
:1006A0000E9439018D818F3F19F061E00E9439016C
:1006B00061E08E810E9439017E0187E0E80EF11C25
:1006C00000E010E08F8584FD03C084E090E002C06C
:1006D00088E090E0081719074CF461E0F701819178
:1006E0007F010E9439010F5F1F4FECCF8BE39DE02C
:1006F0000197F1F760E08C810E94090160E08E8132
:100700000E9409018D818F3F19F060E00E9409016C
:100710006F8564FD1DC063E0CE010E9496020BE46C
:1007200016E4C8010197F1F763E0CE010E9496023A
:10073000C8010197F1F763E0CE010E94960283E5BC
:1007400092E00197F1F762E0CE010E94960216C096
:100750006062CE010E941C038BE496E40197F1F7DE
:100760006F856062CE010E941C0383E592E00197D1
:10077000F1F76F856062CE010E941C036F85606295
:10078000CE010E941C0384E0888B6CE0CE010E94A5
:100790001C03CE010E94320382E0898B66E0CE0109
:1007A000DF91CF911F910F91FF90EF900C941C035C
:1007B000089580E090E00895009769F0FC010190B1
:1007C0000020E9F73197AF01481B590BBC0187EFB7
:1007D00091E00C948C0080E090E008950E94A505C3
:1007E0001F920F920FB60F9211242F933F938F9366
:1007F0009F93AF93BF938091AB019091AC01A09177
:10080000AD01B091AE013091AA0123E0230F2D3745
:1008100020F40196A11DB11D05C026E8230F029604
:10082000A11DB11D2093AA018093AB019093AC014F
:10083000A093AD01B093AE018091A6019091A70164
:10084000A091A801B091A9010196A11DB11D8093AD
:10085000A6019093A701A093A801B093A901BF910D
:10086000AF919F918F913F912F910F900FBE0F905D
:100870001F901895789484B5826084BD84B581609A
:1008800084BD85B5826085BD85B5816085BD80915B
:100890006E00816080936E001092810080918100D3
:1008A00082608093810080918100816080938100CB
:1008B000809180008160809380008091B10084608D
:1008C0008093B1008091B00081608093B0008091EE
:1008D0007A00846080937A0080917A0082608093AD
:1008E0007A0080917A00816080937A0080917A000A
:1008F000806880937A001092C10062E087EF91E0F7
:100900000E943A0387EF91E00E94320380E00E9448
:100910001F038CE091E00E94DC0381E00E941F0332
:100920008AE191E00E94DC03C0E0D0E002E010E048
:1009300083E0E82EF12CCC24C394D12C8091E401E7
:100940000E94E00021E0892B09F420E02093EE01D1
:1009500084ED91E00E947F018091C1010E94E0003E
:1009600021E0892B09F420E02093CB0181EB91E079
:100970000E947F018091AF019091B001813091057B
:1009800051F11CF4892B49F079C08230910509F4AA
:1009900040C0039709F45AC071C081EB91E00E94F6
:1009A0007501882309F46EC087EF91E00E9432033D
:1009B00080E00E941F0385E291E00E94DC0381E059
:1009C0000E941F0383E391E00E94DC03D092B001F8
:1009D000C092AF0157C081EB91E00E94750188235E
:1009E00009F450C087EF91E00E94320380E00E943A
:1009F0001F038AE191E00E94DC0381E00E941F0353
:100A00008EE391E00E94DC031093B0010093AF01EC
:100A100039C081EB91E00E947501882399F187EF3D
:100A200091E00E94320380E00E941F0389E491E07C
:100A30000E94DC0381E00E941F0384E591E00E9494
:100A4000DC03F092B001E092AF011CC081EB91E0B9
:100A50000E9475018823B1F087EF91E00E94320374
:100A600080E00E941F038CE091E00E94DC0381E0A3
:100A70000E941F038AE191E00E94DC031092B00102
:100A80001092AF01209709F459CF0E94000056CF71
:100A9000AF92BF92CF92DF92EF92FF920F931F938C
:100AA0008AE0A82EB12C9AEFC92ED12C2CE2E22E8E
:100AB000FF24F39402E310E020E042E062E084EDE2
:100AC00091E00E94450220E042E063E081EB91E08A
:100AD0000E94450220E042E06BE083E891E00E9442
:100AE000450220E042E06CE080E691E00E94450291
:100AF000E7EFF1E01382128284E091E0918380833A
:100B000088E084838FEF85838DE0868384E087830C
:100B100085E0808786E0818787E082871386148658
:100B200015861686178661E0CF011F910F91FF9001
:100B3000EF90DF90CF90BF90AF900C943A03EE0F00
:100B4000FF1F0590F491E02D099481E090E0F89466
:080B50000C94AA05F894FFCFF4
:100B58000000000016038C00D903D8032D3E436122
:100B6800706163696D6574726F0020204F706369EE
:100B78006F6E20310020204361706163696D657478
:100B8800726F002D3E4F7063696F6E2031002D3EED
:100B98004F7063696F6E20320020204F7063696F59
:100BA8006E2032002D3E4F7063696F6E2033000057
:107E0000112484B714BE81FFF0D085E080938100F7
:107E100082E08093C00088E18093C10086E0809377
:107E2000C20080E18093C4008EE0C9D0259A86E02C
:107E300020E33CEF91E0309385002093840096BBD3
:107E4000B09BFECF1D9AA8958150A9F7CC24DD24C4
:107E500088248394B5E0AB2EA1E19A2EF3E0BF2EE7
:107E6000A2D0813461F49FD0082FAFD0023811F036
:107E7000013811F484E001C083E08DD089C08234E0
:107E800011F484E103C0853419F485E0A6D080C0E4
:107E9000853579F488D0E82EFF2485D0082F10E0AE
:107EA000102F00270E291F29000F111F8ED06801E7
:107EB0006FC0863521F484E090D080E0DECF843638
:107EC00009F040C070D06FD0082F6DD080E0C81688
:107ED00080E7D80618F4F601B7BEE895C0E0D1E017
:107EE00062D089930C17E1F7F0E0CF16F0E7DF06D8
:107EF00018F0F601B7BEE89568D007B600FCFDCFD4
:107F0000A601A0E0B1E02C9130E011968C91119780
:107F100090E0982F8827822B932B1296FA010C0160
:107F200087BEE89511244E5F5F4FF1E0A038BF0790
:107F300051F7F601A7BEE89507B600FCFDCF97BE46
:107F4000E89526C08437B1F42ED02DD0F82E2BD052
:107F50003CD0F601EF2C8F010F5F1F4F84911BD097
:107F6000EA94F801C1F70894C11CD11CFA94CF0C13
:107F7000D11C0EC0853739F428D08EE10CD085E9AC
:107F80000AD08FE07ACF813511F488E018D01DD067
:107F900080E101D065CF982F8091C00085FFFCCF94
:107FA0009093C60008958091C00087FFFCCF809118
:107FB000C00084FD01C0A8958091C6000895E0E648
:107FC000F0E098E1908380830895EDDF803219F02E
:107FD00088E0F5DFFFCF84E1DECF1F93182FE3DFCA
:107FE0001150E9F7F2DF1F91089580E0E8DFEE27F6
:047FF000FF270994CA
:027FFE00040479
:0400000300007E007B
:00000001FF
